:03000000021EFDE0
:0C1EFD00787FE4F6D8FD758121021F44B7
:0C000300000000000000000000000000F1
:0B25A500EF1FAC0670011E4C70F62208
:10002A00AB07AA06EB1BAE0270011A4E60097FAA43
:08003A007E051225A580ED22D0
:101B9D00907120E04480F07F057E001225A5E4FFC2
:101BAD00FE12002A75A75575AC589071327450F01D
:101BBD009071307403F0907136742FF07F18EF240C
:101BCD0066FDE434718D82F583E4F00FEFB433EEEE
:101BDD00904011E4935407FF90711CE054F84FF0BE
:101BED00904017E493547FFF90711DE054804FF0A7
:101BFD00904010E493FF5401C43333335480FE906E
:101C0D007123E0547F4EF0EFC313543F4440FFA3C4
:101C1D00E054804FF0904012E493FF540FFE90710A
:101C2D0046E054F04EF0EFC4540FFF90714FE05466
:101C3D00F04FF0904013E493543FFF907140E05407
:101C4D00C04FF0904014E493907126F0904015E44D
:0E1C5D0093907128F0904016E49390712AF055
:011C6B002256
:070F940044633A428C0000A7
:102494007417F0A37471F02290630CE0FEA3E0FFC4
:0E24A400E4FCFD227B717A17F9F8D302068E54
:101C6C0012249C1224A85003021CFE90630E122412
:101C7C009FF8D312068E407AE4FFFE7D807CBF90E5
:101C8C00633A1206E112004CE4FBFA79A87842128E
:101C9C000246E4FBFA798078BF12004C90633E1246
:101CAC0006FD90633A1206C5E4FBFAF9783F120080
:101CBC004C90633A1206FD90633E1206C590631475
:101CCC001206FD7F007E007DA07C401212C3E4FB57
:101CDC00FA7970784212013D1202E390630CEEF037
:101CEC00A3EFF090630CE0FFA3E090630ECFF0A3A2
:101CFC00EFF012249C1224A8400D90630E12249F26
:101D0C00F8D312068E500C90630C12249490630E30
:041D1C0012249422D7
:1017A40075D9DD121B9D75D95590715EE054FEF01C
:1017B40075D9BB1223A11225141224B2121D2012B2
:1017C400245412241312230A12252690634A122445
:1017D4009490630A122494906306122494906308EC
:1017E400122494C294E490630CF0A3F090630EF07E
:1017F400A3F0D20690634AE0FEA3E0FFC390630D1A
:10180400E09F90630CE09E401490634AE0FEA3E0E6
:10181400FF90630FE09F90630EE09E50281218B172
:10182400300102C201300905C209121C6C90630C1C
:10183400E0FEA3E0FF1225B090630EE0FEA3E0FFFC
:101844001225B980AF90630CE0FFA3E0906302CF50
:10185400F0A3EFF090630EE0FFA3E0906304CFF0F9
:10186400A3EFF0C2061218B1122108122259122451
:1018740034C29430020C7B017A62798212113012E4
:101884000AD39062FEE0FEA3E0FF122010906302F0
:10189400EEF0A3EFF0906300E0FEA3E0FF1220104F
:0D18A400906304EEF0A3EFF01223CE80B8A5
:100F9B004263061771426308177142630A1771C1E6
:100FAB00074262FE177142630217714263001771A9
:050FBB00426304177100
:1024FF00AC06ECF218EFF27817E222E47B717A1750
:05250F00F9F80205EEE1
:101D20007812E24401F27856E4F278277417F21838
:101D30007470F27833E4F218F27819E24401F27820
:101D400011E24401F27817E24401F27812E2440110
:101D5000F27814E24401F27818E24401F278D3E216
:101D600054CFF2E24410F2E254FCF2E24401F29069
:101D7000718AE4F090718C740AF07812E24402F2F5
:101D80007857E4F278297417F2187470F27837E40F
:101D9000F218F27819E24402F27811E24402F27881
:101DA00017E24402F27812E24402F27814E24402AA
:101DB000F27818E24402F278D3E254F3F2E24404F7
:081DC000F290718B7409F0220E
:0925B00078331224FF4401F222E9
:0925B90078371224FF4402F222DB
:0C2581007818E230E0037F01227F002286
:0C258D007818E230E1037F01227F002279
:0D2567007818E24401F290718C740AF022A1
:0E000F007818E254FEF290718CE4F0D2962242
:0D2574007818E24402F290718B7409F02295
:0E2559007818E254FDF290718BE4F0D29522D6
:102010009063107417F0A37471F030070A90631086
:102020007412F0A374C0F090634AE0FCA3E0FD12C8
:1020300007BF12250AA804A905AA06AB07906310DA
:10204000E0FEA3E0FFE4FCFD12056312250AAC06E6
:10205000AD07D3906307E09D906306E09C5005E0D8
:10206000FCA3E0FDD3906309E09D906308E09C50E1
:1020700005E0FCA3E0FDD390630BE09D90630AE0D4
:0C2080009C5005E0FCA3E0FDAE04AF05A1
:01208C002231
:100FC0004162F700C1084162F9004162F8004162E4
:100FD000D400602062D5FFFF000000000000000088
:100FE0000000000000000000000000000000000001
:100FF0000000000000004162C7004162C800416279
:10100000C9004462CA000000004262CE0000426291
:03101000D0FFFF0F
:10237200907123E054F8F0E0441EF090712274074B
:10238200F022E0FF90631FE09F90631EE09E229088
:0F23920062C9E0C394142290631EE0FFA3E0220F
:1023A10078F2E24403F278E3E244C0F278F0E254D6
:1023B100FDF208E254FDF208E2440CF278D0E25456
:0D23C100F7F208E254F7F208E244C0F222FD
:1025140043AA04D2AF786AE24479F27F017E0002D2
:02252400002A8B
:1021CB0043AA04D2AFEF24FE601C146021146026D6
:1021DB002403702E907123E054D8F0E0441D122399
:1021EB007C759917801C1223727599198014122310
:1021FB0072759918800C907123E054D8122378755E
:09220B00990B7869E24448F222C3
:1024E7009062D2E0FEA3E0FF7C007D0C1207BFE400
:0824F7007B0AFAF9F80205EE78
:10210800906310120709000000009062F7E0640174
:02211800605114
:0E211A009062C7E004F0E0C394644045E4F036
:0F2128001224E79063101206FD9062F7E0703406
:102137007FEA7E0BFDFC9063101206E1C312068E48
:1021470050089062C8E004F08005E49062C8F090FF
:1021570062C8E0C3940AE44007F09062F704F022F3
:042167009062F7F09B
:01216B002251
:102434009062F7E07008300516C20502080A90623F
:10244400F7E0B4010A9063067408F0A37434F02230
:102259009062FCE0FEA3E0FF9062F9E0701AD3EF10
:102269009420EE940E5004D2088002C20890630AAA
:102279007417F0A37471F022C3EF94C8EE940E4062
:0D22890002C20890630A7405F0A374DCF033
:012296002225
:030042000214297C
:10142900C0E0C0F0C083C082C0D075D000C000C089
:1014390001C002C003C004C005C006C007786BE242
:0614490020E1030215463C
:10144F00AF93EF75F010A4FFE594C4540FFDEF4D6B
:10145F00FF90631EE5F0F0A3EFF0E24402F290621A
:09146F00F8E064026003021516A6
:10147800122391505EE004F0E0C39402404A906267
:10148800CEE0FEA3D3122384400CE0FFA3E09062D9
:10149800CECFF0A3EFF09062D0E0FEA3C312238476
:1014A800500CE0FFA3E09062D0CFF0A3EFF0906281
:1014B800CA1206E190631EE0FEA3E0FFE4FCFD1201
:1014C80005569062CA1206FD12239150067869E209
:1014D8004401F21223914066A31206C5780412064D
:1014E8009F9062F5EEF0A3EFF09062F87403F0902D
:1014F80062C9E4F09062CEF0A3F09062D074FFF07D
:0C150800A3F09062CA1207090000000066
:1015140080309062F8E0B405081223999062FA8052
:101524001C9062F8E0B407081223999062D2800DEF
:101534009062F8E0B4090B1223999062FCCFF0A3F7
:02154400EFF0C6
:10154600D007D006D005D004D003D002D001D000F9
:0B155600D0D0D082D083D0F0D0E032A3
:1010130041633900C10942632F000042633100007C
:0C1023004263330000446335000000000D
:0725CA00E475F00102054079
:1024B20043A820D2AF75D10178957401F2187476D1
:0B24C200F2789174A0F21874FDF22271
:03001E0002168A3D
:10168A00C0E0C0F0C083C082C0D075D000C000C026
:10169A0001C002C003C004C005C006C0077891E2B9
:1016AA0020E703021789E24480F2906339E004F0EC
:1016BA00E0C3940D4004E4F0D209906283E0C3943D
:0616CA00FF5003E004F0F4
:1016D000300225906269E0601F90632F1225CAC313
:1016E000906330E0946090632FE094EA4011E4F05E
:0F16F000A3F0906269F0800790632FE4F0A3F0FD
:1016FF003008279063331225CA906331E4F0A3F0CA
:10170F00C3906334E09432906333E09400402FE44D
:10171F00F0A3F09062F904F080249063311225CA8F
:10172F00906333E4F0A3F0C3906332E0944090638E
:0E173F0031E0941F4008E4F0A3F09062F9F04E
:10174D002007399063351206C5EF2401FFE43EFEF4
:10175D00E43DFDE43CFC9063351206FD7F407E7751
:10176D007D1B7C009063351206E1C312068E400C82
:0C177D0090633512070900000000D2073D
:10178900D007D006D005D004D003D002D001D000B4
:0B179900D0D0D082D083D0F0D0E0325E
:07102F0044634200000000D1
:0825C200789CE2541FF2E222B2
:10229700E5B154CF42B1789CE254E3F2E24414F240
:1022A700E254FCF2E24401F208E24480F2E2442004
:1022B700F278A1743BF2187460F2789EE4F208F2A7
:0C22C7001225C244A0F253A8BFD2AF22DF
:0C2599001225C244C0F243A840D2AF2279
:102549001225C244A0F2789EE4F208F253A8BF22F1
:030021000224CDE9
:1024CD00C0E0C0D075D000C000789DE230E704E2D6
:0A24DD004480F2D000D0D0D0E032ED
:09103600C100C10142632D00005C
:10216C009063211206C5EF4401FFEC906321020637
:10217C00FD906320E4F09063252290630CE0FEA3B5
:10218C00E0FF2290630EE0FEA3E0FF22E475F00175
:10219C000205409063267401F0906325E4F02290D0
:1021AC006303E09F906302E09E22906305E09F90A2
:0F21BC006304E09E22906320E004F0E0641822A8
:1024540043A901D2AF75D104907105E4F0907104E1
:102464007424F090710174A0F090710074FDF02256
:03002400020D4981
:100D4900C0E0C0F0C083C082C0D075D000C000C070
:100D590001C002C003C004C005C006C007907101EC
:100D6900E020E703020F79E04480F0906329122123
:100D79009890632B12219890632D122198C3906348
:100D89002CE0940D90632BE094004006E4F0A3F06E
:100D9900D201C390632AE0940D906329E094004046
:070DA90006E4F0A3F0D20004
:100DB00020833D906327E004F0E0C3941E500302BB
:100DC0000EB8906320E064176003020EB8906328A9
:100DD000E09406400AE09414500512216C800B90B8
:100DE0006328E0C394014002E0FF12219F020EB885
:100DF000906327E0D394005003020E9EE0D3943218
:100E000040129063211207090000000012217D04A6
:100E1000F0020E8B906325E06024906327E0C3947A
:100E200002401BE094075016A3E0C39406400FE075
:100E30009414500A12216C1221C1604F80319063CA
:100E400025E06039906327E0C394074030E09414B4
:100E5000502BA3E0C394014024E09406501F9063FC
:100E6000211206C5EF54FE1221751221C1601CA388
:100E70001206C578011206B2122177800E90632106
:100E80001207090000000012217DF0906327E4F0B2
:100E9000A3F0906320E0B4181912219F801490638E
:100EA00025E0700E90632112070900000000122156
:100EB0007DF0906328E004F0906326E0601B90636F
:100EC00020E4F0906326F0A3F0A3F09063211206D3
:090ED000C59062BD1206FDD203BB
:100ED900C390632EE0941490632DE09400500302B4
:100EE9000F79E4F0A3F0300603020F79122186D3BB
:100EF9001221AB400990630CE475F00180101221B6
:100F090086C31221AB500A90630C74FFF5F01205E9
:100F19004012218FD31221B6400990630EE475F077
:100F290001801012218FC31221B6500A90630E74EA
:100F3900FFF5F01205401221861225B012218F12F9
:100F490025B9D390630DE0940090630CE0940050B0
:100F59000512000F8003122567D390630FE09400F8
:100F690090630EE0940050051225598003122574F0
:100F7900D007D006D005D004D003D002D001D000CC
:0B0F8900D0D0D082D083D0F0D0E03276
:07103F0042634A1771C10A68
:10247400E0FEA3E0FF1207BF7B0AE4FAF9F81205B5
:10248400EEE422906311E094DD906310E094042262
:1018B1009062FAE0FFA3E0906310CFF0A3EFF03065
:1018C1000A030219B2D3906311E094EA906310E025
:1018D1009401500AE490634AF0A3F00219A5D312CF
:1018E10024875029E0FEA3E0FFEF2416FFEE34FE2B
:1018F100FEE434FFFDE434FFFCE47BE27A2EF9F8E8
:1019010012056312247C7BDD7A0402198CD3906367
:1019110011E094EE906310E09408500E7C5D7DC45C
:101921001224747BEE7A0802198CD3906311E0942F
:1019310012906310E0940B5017E0FEA3E0FF7C17B8
:101941007D711207BF7B0212247E7B127A0B803BD2
:10195100D3906311E094BC906310E0940C500D7C23
:101961008C7DA61224747BBC7A0C801FD3906311EA
:10197100E09491906310E0940F501FE0FEA3E0FF0C
:101981007CBB7D881224797B917A0FF9F81205EEE0
:1019910090634AEEF0A3EFF0800A90634A7417F067
:1019A100A37471F090634AE07002A3E0700BD20A55
:0919B10022C31224874002C20A7D
:0119BA00220A
:101046004162690044627EFFFFFFFF4662C1000005
:1010560000000000C102C1034462BD00000000544C
:10106600626A0821222324042526272802292A2BFE
:101076002C012D2E2F3060286295140102030418CE
:101086000506070810090A0B0C150D0E0F100511A1
:10109600121314081516171806191A1B1C091D1EFB
:1010A6001F205362823200000000000F1200000071
:0C10B600040001FF1DC8FF00416268003B
:101AB800740175F02C9062FE120540D39062FFE02D
:101AC80094719062FEE0941722740175F02C906373
:101AD80000120540D3906301E09471906300E09494
:101AE800172274FE75F0D4120540C39062FFE0948B
:101AF8002C9062FEE094012274FF75F06A12054092
:101B0800C39062FFE094969062FEE094002274FE17
:101B180075F0D4120540C3906301E0942C906300E3
:101B2800E094012274FF75F06A120540C3906301C6
:101B3800E09496906300E094002212069F9062C1A0
:101B48001206E1C302068E9062BD0206C57417F044
:101B5800A37471F0229062C6E064C522EE75F005A8
:101B6800A4246AF582E4346222EE75F005A4249573
:101B7800F582E43462227B017A6279C17406F0E46A
:101B8800FF2212069F90627E0206FD9062C1120635
:051B9800C590627E22F1
:101DC800200303021E60C203121B4FEC4D4E4F70DE
:041DD80003021E5D87
:101DDC00121B4FEF906310F0906269E0602B9063E0
:101DEC0010E0540FFBBB010F121B4F7804121B8A1F
:101DFC00906310EBF0804A906310E0641470421210
:101E0C001B4F7808121B8A8038121B5D702D906254
:101E1C00C5E0B40113121B4F7804121B42700990D9
:101E2C006310E0540FF080199062C5E0B4020A12FE
:101E3C001B4F7808121B426008800090631074FFDF
:101E4C00F09062BD12070900000000906310E0FFE3
:011E5C002263
:061E5D007FFF227FFF223F
:02221400A90718
:10221600E4FFFEEB64017014121B64F583E0B50164
:1022260005121B6480180EEEB404ED22EB640270F6
:1022360021FE121B71F583E0B50112121B71F583A5
:10224600E5822DF582E43583F583E0FF220EEEB4B8
:0222560008E09E
:012258002263
:081F8900906311EFF0A3EDF0ED
:101F9100E4A3F0A3F0906269E06035121B93121B79
:101FA100487018121B5D70139062C5E0B401028085
:101FB100339062C5E064027050803C906311E0FF91
:101FC100B414028037906311E0FF6401703B801903
:101FD100121B93121B487031121B5D702C9062C54D
:101FE100E0B4010C906311E0FFA3E0FD7B018011DF
:101FF1009062C5E0B40212906311E0FFA3E0FD7BA3
:0E20010002122214906313EFF0906313E0FFBD
:01200F0022AE
:100AD300E4906310F0906293E0F47003020D48E039
:100AE300FFA3E0FD121F89906310EFF090629374EF
:050AF300FFF0E4A3F098
:100AF800906269E06401705A906310E0FF90626848
:100B0800E06F7044EF64036005EF642F705E9062DD
:100B1800C674C5F090627E1206C59062C11206FDC9
:100B2800906310E09062C5B403057402F08003740A
:100B380001F0E4FF122538906315121B7E1222D3B0
:100B48009062697402F08024906310E0906268F00B
:100B5800801A906269E0B40213906310E0FF6404A5
:0C0B68006004EFB43006E4906269F022F3
:100B7400121B5D6003020D48906269E0600F906291
:100B84007E1206C5121B457004906269F0906310D2
:100B9400E01207930BE4010BE4040BF3050BF308D9
:100BA4000BF6090C010B0C100D0C1B0F0C2A110C6D
:100BB4002A140C30150C30180C36190C451B0C5B20
:100BC4001D0C731F0C8B210C9E230CBF250CBF28FE
:100BD4000CD4290CFB2B0D222D0D223000000D48C6
:100BE400122581EF700612258DEF6003020D2E028F
:100BF4000D3C121AB85003020D48020D45E475F07D
:100C040096121ABD5003020D48020D45121AD15016
:100C140003020D48020D45E475F096121AD65003EE
:100C2400020D48020D459062FE020CCC9063000256
:100C34000CCC121AF24019121AEA4003020D488031
:100C440023121B08400A121B004003020D488014A3
:100C5400E49062FE020D38121B1E400C121B16405B
:100C640003020D48E4020D38E4906300020D3812CB
:100C74001B34400C121B2C4003020D48E4020D38B7
:100C8400E4906300020D38121AB84003121B551287
:100C94001AD15003020D48020D459062FEE475F02E
:100CA40096121AC04003121B55906300E475F09627
:100CB400121AD95003020D48020D459062FE740BBE
:100CC400F0A374B8F0906300740BF0A374B8F0222E
:100CD400121AF24008121AEA500AE48004E49062FC
:100CE400FEF0A3F0121B1E4008121B165056E4809F
:100CF40043E4906300803D121B084008121B00501F
:100D04000AE48004E49062FEF0A3F0121B3440086D
:100D1400121B2C502FE4801CE490630080161225D3
:100D240081EF700612258DEF600EE49062FEF0A351
:100D3400F0906300F0A3F0229062FE121B559063C2
:040D440000121B5529
:010D48002288
:10230A0078C0E24408F278C2E2543FF278D0E2445C
:10231A0002F278D2E254F3F2209104D2028002C28D
:10232A000230020F906314121B7E12233E906269E0
:04233A007401F02218
:0410C200416349003D
:1023F200906310F090634602073A9000061204AC14
:10240200FE9000080204AC90000912051E90000C18
:0124120022A7
:10113000E4906310F07FFFA374FFF0906346120702
:101140005A9000011204ACFE120493FDEEC39D50B0
:10115000030212C21223F6900001E412051E900051
:101160000E1207631207B9EFF46008906349742305
:10117000F08009906349E06003E014F01223F690D8
:1011800000031204AC6F60159000051204AC600DF2
:10119000900004E412051E9000030212BE900005A8
:1011A0001204ACFE9000041204ACC39E500B122338
:1011B000F690000474010204D91223F69000021282
:1011C00004AC6F6048EFF4701C1223FCC39E400A0D
:1011D00074041223F290000280611223F690000A38
:1011E00074010212B51223F6900008740112240C47
:1011F0001204AC6F906346600C12073A740112241B
:1012000009EF0212B512073A900009803DEFF47021
:10121000411223F69000091204ACD394005003024B
:1012200012B890000B1204ACFE90000A1204ACD36A
:101230009E401174011223F290000C1204AC9063D2
:1012400011F080541223F690000A74011204D9029E
:1012500012B81223F6122403C394FF50089000081A
:1012600074011204D91223FCB506089063107402AD
:10127000F080201223F69000071223FF6E70399041
:10128000631074031223F59000061204AC9000085A
:1012900012051E906311EFF01223F6E41224097474
:1012A000FF12051E906311E090001112051E90635D
:1012B00010E090001212051E1223F6900002EF12A9
:0212C000051E09
:0112C2002209
:1025380075AF3F8FAF75AEB975A402E5A530E1FB65
:012548002270
:1022D30090631212075A75AF3F8FAF906315E0C337
:1022E30094014022E5A530E0FB906312E475F00110
:1022F300120743120493F5A675AEB975A401906352
:0723030015E014F080D52263
:10233E0090631112075A906314E06027AE070FEEF8
:10234E002400FDE4343F8D82F583E493FE90631107
:10235E00E475F001120743EE12050C906314E014BD
:04236E00F080D32206
:1025260078D2E254CFF2E24410F2907188E4F0C21D
:022536009222EF
:1023CE00C390630DE0945890630CE094025012C3D6
:1023DE0090630FE0945890630EE094025003D292F3
:0423EE0022C2922253
:0410C60041634D0134
:0725D1007869E24401F222E7
:1024130043A902D2AF75D10890710D7401F0907188
:102423000C745DF090710974A0F090710874FDF064
:012433002286
:030027000219BB00
:1019BB00C0E0C0F0C083C082C0D075D000C000C0F2
:1019CB0001C002C003C004C005C006C00790710966
:0E19DB00E020E703021A9D907109E04480F0BD
:1019E90090634CE004F0E0C39408400AA3E0600669
:1019F900E4F09062F8F090634CE0C3940A4007E485
:061A0900F0D205A304F079
:101A0F009062F8E06004E0B4090E7F011221CB90E0
:101A1F0062F87401F0021A9D9062F8E0B4010812A6
:101A2F0025D17402F080679062F8E0B4030D7F0255
:101A3F001221CB9062F87404F080539062F8E0B4F6
:101A4F0004081225D17405F080449062F8E0B405C3
:101A5F000D7F031221CB9062F87406F080309062F4
:101A6F00F8E0B406081225D17407F080219062F8CF
:101A7F00E0B4070D7F041221CB9062F87408F08058
:101A8F000D9062F8E0B408061225D17409F0D00762
:101A9F00D006D005D004D003D002D001D000D0D0D2
:091AAF00D082D083D0F0D0E032E7
:1010CA004260030000426265000042626310004110
:1010DA0062670060406005FFFF000000000000003A
:1010EA0000000000000000000000000000000000F6
:1010FA0000000000000000000000000000000000E6
:10110A0000000000000000000000000000000000D5
:10111A000000000000000041600000416001004141
:05112A00600200C10499
:10208D00EF25E0FFEE33FE74472FF58274603EF5C9
:10209D0083227FC37E05E4FDFC9063101206E1D31D
:1020AD0002068EECF0A3EDF0906316E475F00102DC
:1020BD000540D3906309E094B8906308E0940B2237
:1020CD00906316E0FEA3E0FFC322906000E025E0E0
:1020DD002405F582E43460F58322E4906316F0A3C1
:1020ED00F02233FE74052FF58274603EF583229045
:0B20FD006317E025E0FF906316E0226F
:10080A00906310120709000000009062F5E0FFA350
:10081A00E0906314CFF0A3EFF0906005E0F470036A
:05082A00A3E0F4703FA3
:10082F001220E81220CD9420EE94005015906314FE
:10083F00E0FCA3E0FDEF25E0FFEE1220EF1220B069
:10084F0080E11220E71220CD940EEE9401505990C2
:0F085F006314E0FCA3E0FD12208D1220B080E6B0
:10086E001220D7E0FFA3E0906316CFF0A3EFF09035
:10087E006314E0FEA3E0FF906316EE8FF0120540C6
:10088E00906316E0C313FEA3E013FF906316EEF021
:10089E00A3EFF01220D7EEF0A3EFF0906000E0048B
:0908AE00F0E0C394204002E4F0E4
:1008B7001220E79063101206E11220FC1220EFE0ED
:1008C700FEA3E0FFE4FCFD1205569063101206FD3F
:1008D7001220B5906316E07004A3E0642070D490F2
:1008E70063101206C5780512069F9063101206FD65
:1008F7009063101206C5AD07AC06906046E025E090
:10090700FF906045E033FE74472FF58274603EF533
:1009170083ECF0A3EDF09060451220B8C3906046D9
:0F092700E0940E906045E094014004E4F0A3F0EA
:100936001220E7906265F0A3F09062637410F0A352
:10094600E4F01220CD940EEE940140030209D91270
:10095600208DE0FCA3E0FD906265E0FAA3E0FBD306
:10096600ED9BEC9A400F122094E0FFA3E0906265A5
:10097600CFF0A3EFF01220FC122092E0FCA3E0FDE2
:10098600906263E0FAA3E0FBC3ED9BEC9A500F1272
:100996002094E0FFA3E0906263CFF0A3EFF09062B3
:1009A60063E0FEA3E0FFC3906266E09FFF9062658E
:1009B600E09EFED3EF9450EE940040089062677478
:1009C6001EF08009906267E06003E014F01220B523
:0309D600020948CB
:1009D900E47F8B7E06FDFC9063101206E1C31206CC
:1009E9008E500C3004597F8B7E061220A34050E4B0
:1009F900906001F0A3F0D204906267E0B41E1BE09E
:100A090014F01220BF400774FFF5F0120540C3121D
:100A190020C04003020AD2020A8D906267E0600397
:100A2900020AD2200003020AD2C200C3906309E07D
:100A39009471906308E094174003020AD2803C1233
:100A4900209F4048E47F6D7E061220A440089060F4
:100A590001E064047036300170C201906001E0C3A6
:100A690094045003E004F0E4906002F0C204122000
:100A7900BF40028043C31220C05006E475F00180D4
:100A89003C906308740BF0A374B8F02212209F40C5
:100A990006906002E0603230012FC201906002745A
:100AA90001F0E4906001F0C204D3906309E0940876
:100AB900906308E09407400874FF75F0FE02054052
:090AC9009063087407F0A304F027
:010AD2002201
:1000450002034FE86480F8E933E83360110460F097
:10005500ED33EC337009E8FCE9FDEAFEEBFF220421
:1000650060DED3EB9FEA9EE99DE8C2E78CF0C2F71C
:1000750095F0400CE8CCF8E9CDF9EACEFAEBCFFBE8
:1000850012031A85D0F05804700320D5B3E8047024
:10009500075002B2D502035992D5EC0460F7E4CCBF
:1000A500C0E0C398F8603B94186008400DD0E0FBB1
:1000B500020331E4FBFAC9FC8028E830E406E4C910
:1000C500FBE4CAFCE830E305E4C9CACBFCE8540705
:1000D5006010F8C3E913F9EA13FAEB13FBEC13FC10
:1000E500D8F130F52FC3E49CFCEF9BFFEE9AFEEDB3
:1000F50099FDD0E0FBEF4E4D4C701222DB0302035D
:1001050056EC2CFCEF33FFEE33FEED33FDED30E71F
:10011500EB020331EF2BFFEE3AFEED39FDD0E0FBAC
:1001250050130BBB0003020359ED13FDEE13FEEF55
:0801350013FFEC13FC0203317F
:10013D00EC4D6011E8497017ED33EC3304600DE4BC
:10014D00FCFFFEFD22E933E8330470F802034F1281
:10015D00031A58046009E4CC248150062850090282
:10016D000359284003020356C0E0EB4A7044B9809E
:10017D0006D0E0FB020345EF4E701CBD8008EBFF7F
:10018D00EAFEE9FD80EBE98DF0A4FEE5F002022622
:10019D00E9CDF9EAFEEBFFEF89F0A4FCE5F0CE899D
:1001AD00F0A42EFFE435F0CD89F0A42DFEE435F05A
:1001BD008067EF4E7005BD80D780C3EF8BF0A4AC88
:1001CD00F0EE8BF0A42CFCE435F0F8EF8AF0A42CC3
:1001DD00E5F038FCE433CB8DF0A42CFCE5F03BF8D6
:1001ED00EE8AF0A42CFCE5F038F8E433CF89F0A4C6
:1001FD002CFCE5F038CF3400CE89F0A42FFFE5F0CC
:10020D003EFEE433C98DF0A42EFEE5F039CD8AF023
:10021D00A42FFFE5F03EFEE43DFD33D0E0FB50079B
:10022D000BBB000F020359EC2CFCEF33FFEE33FE3A
:06023D00ED33FD02033168
:10024300020359EC5D046005E85904700302034F8F
:1002530012031A580460F6EC4860F2EC7004FDFED9
:10026300FF22C860DB2481C85009C398600250068E
:100273000203569850CAF582E9294B4A7005AB82AE
:1002830002034575F0007C1A7880C3EF9BEE9AED6C
:1002930099400DC3EF9BFFEE9AFEED99FDE842F006
:1002A300DC23ACF0D0E0FFD0E0FED0E0FDAB822059
:1002B300E7101BEB60BAEC2CFCEF33FFEE33FEEDE3
:1002C30033FD020331E803F830E705C0F075F000B1
:1002D300EF2FFFEE33FEED33FD40B830E7C280AAC7
:1002E300EDD2E7CD33EC3392D524814006E4FFFE13
:1002F300FDFC22FCE4CFCECDCC24E0501174FF8072
:10030300EDC3CC13CCCD13CDCE13CECF13CF04700E
:07031300F030D5DE02068088
:1012C3009063101206FDE4FFFE7D807C3F90631067
:1012D300E0F8A3E0F9A3E0FAA3E0FB12037E7006B3
:1012E30090631002141D906310E0FCA3E0FDA3E0E3
:1012F300FEA3E0FF120364FBA3E0FCA3E0FDA3E075
:10130300FEA3E0FF120364FFB40108E4FFFE7D8047
:101313007C3F22EF64046029EB64046024EBB40196
:1013230030E4FFFEFDFC906314E0F8A3E0F9A3E0D2
:10133300FAA3E0FB12037E60084006E4FFFEFDFC17
:1013430022906314120709FFFFFFFF906314021436
:101353001DE4906318F0A3F0FFFEFDFC906310E022
:10136300F8A3E0F9A3E0FAA3E0FB12037E505F9039
:101373006314E0FCA3E0FDA3E0FEA3E0FF1202E39D
:10138300906318EEF0A3EFF0FDCCEECCEC12040D5D
:10139300C8ECC8C9EDC9CAEECACBEFCB906314E061
:1013A300FCA3E0FDA3E0FEA3E0FF120048E4FBFA88
:1013B300F9F812037E708A906310E0FCA3E0FDA3AA
:1013C300E0FEA3E0FF1203F79063101206FD9063A3
:1013D30010E0FCA3E0FDA3E0FEA3E0FF121595904F
:1013E3006314E0F8A3E0F9A3E0FAA3E0FB12013DE4
:1013F300121E9B9063141206FD906319E030E017F0
:10140300906314E0FCA3E0FDA3E0FEA3E0FF12035E
:10141300F79063141206FD906314E0FCA3E0FDA3B0
:06142300E0FEA3E0FF2241
:10031A00E9D2E7C933E833F892D5EDD2E7CD33EC29
:07032A0033FC5002B2D522A2
:10033100EC30E7100FBF000C0EBE00080DBD00042D
:100341000BEB6014A2D5EB13FCED92E7FD2274FFD9
:10035100FCFDFEFF22E480F8A2D574FF13FC7D8032
:03036100E480EF46
:10036400ED33EC33601004700FED547F70057402AC
:0A03740092E0227404220422E42225
:10037E0074F8CC6480CCC86480C8F58204604FC326
:10038E00EB9FF5F0EA9E42F0E99D42F0E89C45F0C5
:10039E00603C501DE5825FFFE582D313CB5BCBF44F
:1003AE002B5582FB50280ABA002409B90020088078
:1003BE001DE5825BFBE582D313CF5FCFF4C3132F12
:1003CE005582FF50090EBE00050DBD00010CC3EB9A
:1003DE009FF5F0EA9E42F0E99D42F0E89C45F06000
:0903EE0007CC4820E701B3EC2222
:1003F700ED33EC33600A047003BD8004ECB2E7FC14
:0104070022D2
:1004080075F020800E75F010800575F0087D007E6F
:10041800007F003392D530D503120680EC334010AC
:10042800EF33FFEE33FEED33FDEC33FCD5F0ED2278
:0E043800E5F0247EA2D513CC92E7CDCEFF22B4
:101E630033DA929E35B16011377FE5FE39218489DB
:101E73003AAEC3FF3C1D955B3D6358473E75FDF08D
:101E83003F3172183F800000C2D502035902034F4D
:101E9300BD80FA50F3020356ED33EC330460F17B5B
:101EA3003B7AAA79B8783F12013DED33EC3392D5F2
:101EB300247B5011A2D570DB500BED4480240450D9
:101EC30004A2D580CEEFFBEEFAEDF9ECF81202E3B3
:101ED300EFF582F404FC12041212004CC082901E2F
:101EE300637409120455ED33CC33D0F092D525F049
:0A1EF300A2D57001C313CC13FD2229
:101561003E9248DA3ECCCCCD3F2AAAAB40000000E7
:101571003F8000003F9837F03FB504F33FD744FC6C
:101581003E3172173EB172173F0515913EDE5BD9B0
:10159100D20B8002C20BEDD2E7F8CD33EC330470ED
:1015A1000BBD800592D502035902034F40FBD314B2
:1015B10060F2F5F07C3FEE7A00C39496C8948B40BC
:1015C100230AC89469C8941A401A0AC89468C8942E
:1015D1001F40110AC8945AC89425400805F07A00A2
:1015E100CDC2E7CDC0F090631A1206FDEA2323C0F5
:1015F100E02471F582E43415F5831206ED12004CF6
:10160100ECC0E0EDC0E0EEC0E0EFC0E01206D1902A
:10161100631A1206E1120048D0E0FBD0E0FAD0E0F4
:10162100F9D0E0B2E7F812024690631A1206FD9073
:101631001561740312044690631A1206E112013D0A
:10164100D0E0600F247DF582E43415F5831206EDB8
:1016510012004C90631A1206FDD0E0C3947FFDE4A2
:101661009400FC12040D7B187A727931783F1201D3
:101671003D90631A1206E112004C300B0B7BD97AB4
:091681005B79DE783E12013D2286
:10044600C0E0EFFBEEFAEDF9ECF812013DD0E0F575
:10045600F0EFFBEEFAEDF9ECF81206D1A3A3A3A395
:10046600E8C0E0E9C0E0EAC0E0EBC0E0C0F012019D
:100476003D1206EDA3A3A3A312004CD0F0D0E0FBDF
:0D048600D0E0FAD0E0F9D0E0F8D5F0D422B3
:101F09000217A4E493A3F8E493A34003F68001F233
:101F190008DFF48029E493A3F85407240CC8C333D9
:101F2900C4540F4420C8834004F456800146F6DFA8
:101F3900E4800B0102040810204080900F94E47E95
:101F4900019360BCA3FF543F30E509541FFEE4939D
:101F5900A360010ECF54C025E060A840B8E493A364
:101F6900FAE493A3F8E493A3C8C582C8CAC583CA8F
:101F7900F0A3C8C582C8CAC583CADFE9DEE780BE47
:01112F0000BF
:10049300BB010689828A83E0225002E722BBFE0267
:0904A300E32289828A83E493229A
:1004AC00BB010CE58229F582E5833AF583E0225005
:1004BC0006E92582F8E622BBFE06E92582F8E2224F
:0D04CC00E58229F582E5833AF583E4932269
:1004D900BB010FF8E58229F582E5833AF583E02827
:1004E900F0225009C58229F8E58226F622BBFE09C9
:1004F900C58229F8E22582F222F8EA2583F583E903
:0305090093282212
:10050C00BB010689828A83F0225002F722BBFE01CE
:02051C00F322C8
:10051E00F8BB010DE58229F582E5833AF583E8F013
:10052E00225006E92582C8F622BBFE05E92582C8BF
:02053E00F222A7
:10054000C5F0F8A3E028F0C5F0F8E5821582700246
:060550001583E038F022E3
:0D055600EF2BFFEE3AFEED39FDEC38FC22F4
:10056300E88FF0A4CC8BF0A42CFCE98EF0A42CFC37
:100573008AF0EDA42CFCEA8EF0A4CDA8F08BF0A4B5
:100583002DCC3825F0FDE98FF0A42CCD35F0FCEB14
:100593008EF0A4FEA9F0EB8FF0A4CFC5F02ECD39D9
:0F05A300FEE43CFCEAA42DCE35F0FDE43CFC2246
:1005B20075F008758200EF2FFFEE33FECD33CDCC00
:1005C20033CCC58233C5829BED9AEC99E582984083
:1005D2000CF582EE9BFEED9AFDEC99FC0FD5F0D660
:1005E200E4CEFBE4CDFAE4CCF9A88222B800C1B98A
:1005F2000059BA002DEC8BF084CFCECDFCE5F0CBC8
:10060200F97818EF2FFFEE33FEED33FDEC33FCEB00
:1006120033FB10D703994004EB99FB0FD8E5E4F9BB
:10062200FA227818EF2FFFEE33FEED33FDEC33FCA8
:10063200C933C910D7059BE99A4007EC9BFCE99A9C
:10064200F90FD8E0E4C9FAE4CCFB2275F010EF2FE1
:10065200FFEE33FEED33FDCC33CCC833C810D707E1
:100662009BEC9AE899400AED9BFDEC9AFCE899F81C
:0E0672000FD5F0DAE4CDFBE4CCFAE4C8F922AF
:0E068000C3E49FFFE49EFEE49DFDE49CFC228B
:10068E00EB9FF5F0EA9E42F0E99D42F0E89C45F0C2
:01069E002239
:10069F00E8600FECC313FCED13FDEE13FEEF13FF39
:0306AF00D8F1225D
:1006B200E8600FEFC333FFEE33FEED33FDEC33FCA6
:0306C200D8F1224A
:0C06C500E0FCA3E0FDA3E0FEA3E0FF22A8
:1006D100E493FC740193FD740293FE740393FF226F
:0C06E100E0F8A3E0F9A3E0FAA3E0FB229C
:1006ED00E493F8740193F9740293FA740393FB2263
:0C06FD00ECF0A3EDF0A3EEF0A3EFF02270
:10070900A8828583F0D083D0821207201207201295
:100719000720120720E473E493A3C583C5F0C583BA
:10072900C8C582C8F0A3C583C5F0C583C8C582C83A
:01073900229D
:09073A00E0FBA3E0FAA3E0F922C0
:10074300F8E0FBA3A3E0F925F0F0E582158270023F
:070753001583E0FA38F022E3
:09075A00EBF0A3EAF0A3E9F022A0
:10076300BB010DE58229F582E5833AF58302073A59
:100773005007E92582F80207ECBBFE07E92582F85A
:100783000207F5E58229F582E5833AF5830207FE40
:10079300D083D082F8E4937012740193700DA3A3F5
:1007A30093F8740193F5828883E473740293686009
:0607B300EFA3A3A380DF09
:0607B9008A838982E473CB
:1007BF00EC8EF0A4CCC5F0CCCDF8EFA4CEC5F02DC7
:1007CF00FDE43CFCE8A42EC8C5F03DFDE43CFCEF85
:0D07DF00A4FFE5F028FEE43DFDE43CFC2213
:0907EC00E6FB08E6FA08E6F92232
:0907F500E2FB08E2FA08E2F92235
:0C07FE00E493FB740193FA740293F92257
:00000001FF
