:03000000021F5A82
:0C1F5A00787FE4F6D8FD758121021FA1FC
:0C000300000000000000000000000000F1
:0B270800EF1FAC0670011E4C70F622A3
:10002A00AB07AA06EB1BAE0270011A4E60097FAA43
:08003A007E0512270880ED226B
:101BFA00907120E04480F07F057E00122708E4FF00
:101C0A00FE12002A75A75575AC589071327450F0BF
:101C1A009071307403F0907136742FF07F18EF24AE
:101C2A0066FDE434718D82F583E4F00FEFB433EE90
:101C3A00904011E4935407FF90711CE054F84FF060
:101C4A00904017E493547FFF90711DE054804FF049
:101C5A00904010E493FF5401C43333335480FE9010
:101C6A007123E0547F4EF0EFC313543F4440FFA367
:101C7A00E054804FF0904012E493FF540FFE9071AD
:101C8A0046E054F04EF0EFC4540FFF90714FE05409
:101C9A00F04FF0904013E493543FFF907140E054AA
:101CAA00C04FF0904014E493907126F0904015E4F0
:0E1CBA0093907128F0904016E49390712AF0F8
:011CC80022F9
:070FB000446348428C00007D
:102624007417F0A37471F02290631AE0FEA3E0FF24
:0E263400E4FCFD227B717A17F9F8D302068EC2
:101CC90012262C1226385003021D5B90631C122623
:101CD9002FF8D312068E407AE4FFFE7D807CBF90F8
:101CE90063481206E112004CE4FBFA79A878421223
:101CF9000246E4FBFA798078BF12004C90634C12DB
:101D090006FD9063481206C5E4FBFAF9783F120014
:101D19004C9063481206FD90634C1206C5906322ED
:101D29001206FD7F007E007DA07C4012130BE4FBB0
:101D3900FA7970784212013D1202E390631AEEF0CB
:101D4900A3EFF090631AE0FFA3E090631CCFF0A328
:101D5900EFF012262C122638400D90631C12262F04
:101D6900F8D312068E500C90631A12262490631C25
:041D790012262422E8
:1019040075D9DD121BFA75D95590715EE054FEF05D
:1019140075D9BBD20612250A122677122642121D49
:101924007D1225E41225A31223E31226897F0A7E61
:101934000012002A9063561226249063181226245B
:10194400906313122624906315122624C294E49003
:10195400631AF0A3F090631CF0A3F0906356E0FECA
:10196400A3E0FFC390631BE09F90631AE09E4014C2
:10197400906356E0FEA3E0FF90631DE09F90631C1C
:10198400E09E50281217EF300102C201300805C250
:1019940008121CC990631AE0FEA3E0FF12271390FB
:1019A400631CE0FEA3E0FF12271C80AF90631AE0E3
:1019B400FFA3E090630FCFF0A3EFF090631CE0FF70
:1019C400A3E0906311CFF0A3EFF0C2061217EF1259
:1019D400216712223F1225C4C29430020C7B017A83
:1019E400627985121178120AEF90630BE0FEA3E08E
:1019F400FF12206D90630FEEF0A3EFF090630DE003
:101A0400FEA3E0FF12206D906311EEF0A3EFF0123D
:041A1400255E80B813
:100FB7004263131771426315177142631817714122
:100FC70063170042630B177142630F177142630D7A
:070FD700177142631117714D
:10244B00E0FEA3E0FFC390631FE09F90631EE09E3E
:10245B0022E0FFA3E0CF90631EF0A3EFF022AC06C7
:10246B00ECF218EFF27817E222E47B717A17F9F8A5
:03247B000205EE69
:101D7D007812E24401F27856E4F278277417F218DB
:101D8D007470F27833E4F218F27819E24401F278C3
:101D9D0011E24401F27817E24401F27812E24401B3
:101DAD00F27814E24401F27818E24401F278D3E2B9
:101DBD0054CFF2E24410F2E254FCF2E24401F2900C
:101DCD00718AE4F090718C740AF07812E24402F298
:101DDD007857E4F278297417F2187470F27837E4B2
:101DED00F218F27819E24402F27811E24402F27824
:101DFD0017E24402F27812E24402F27814E244024D
:101E0D00F27818E24402F278D3E254F3F2E2440499
:081E1D00F290718B7409F022B0
:0927130078331224694401F2221A
:09271C0078371224694402F2220C
:0C26E4007818E230E0037F01227F002222
:0C26F0007818E230E1037F01227F002215
:0D26CA007818E24401F290718C740AF0223D
:0E000F007818E254FEF290718CE4F0D2962242
:0D26D7007818E24402F290718B7409F02231
:0E26BC007818E254FDF290718BE4F0D2952272
:10206D00E490631EF0A3F09063207417F0A37471D5
:10207D00F0906317E0600A9063207412F0A374C0AF
:10208D00F0906356E0FCA3E0FD1207BF122474A884
:10209D0004A905AA06AB07906320E0FEA3E0FFE4C8
:1020AD00FCFD120563122474EE1224619063131269
:1020BD00244B400690631312245C90631512244B3D
:1020CD00400690631512245C90631812244B400651
:0E20DD0090631812245C90631EE0FEA3E0FFE7
:0120EB0022D2
:100FDE00416301004162FE0041630300416306006C
:100FEE0041630500C1074163040041630200416291
:100FFE00DD00602062DEFFFF000000000000000048
:10100E0000000000000000000000000000000000D2
:10101E000000000000004462CC000013884162CA48
:10102E00004162CB004262D00FFF4162D2004462A7
:0F103E00D3000000004262D700004262D9FFFFDA
:10247E00907123E054F8F0E0441EF090712274073E
:10248E00F02290632CE0FCA3E0FD22E0FF90632D90
:10249E00E09F90632CE09E229062D2E0C3941422BF
:10250A0078F2E24403F278E3E244C0F278F0E2546B
:10251A00FDF208E254FDF208E2440CF278D0E254EB
:0D252A00F7F208E254F7F208E244C0F22292
:1026770043AA04D2AF786AE24479F27F017E00026E
:02268700002A27
:10229B0043AA04D2AFEF24FE601C14602114602605
:1022AB002403702E907123E054D8F0E0441D1224C7
:1022BB0088759917801C12247E7599198014122425
:1022CB007E759918800C907123E054D81224847574
:0922DB00990B7869E24448F222F3
:1022E400EF24FE601714602114602B2403703790D0
:1022F40062FFECF0A3EDF09062FE8027906307ECA0
:10230400F0A3EDF0906303801A9062DBECF0A3ED90
:10231400F0906306800DAF05906309ECF0A3EFF035
:072324009063057401F02233
:1024AE00E4FDFCEF24FE600F14601114601324038E
:1024BE0070179062FF800D90630780089062DB803A
:0D24CE0003906309E0FCA3E0FDAE04AF0540
:0124DB0022DE
:1024DC00E4FEEF24FE6011146015146019240370DF
:1024EC001A9062FEE0FE8013906303E0FE800C9075
:0D24FC006306E0FE8005906305E0FEAF067C
:0125090022AF
:10253700EF24FE601014601314601624037017E470
:102547009062FEF022E4906303F022E4906306F0C9
:0725570022E4906305F0226D
:08216700906301E06401607067
:0E216F009062CAE004F0E0C394644064E4F0BF
:10217D007F031224DCEF60207F031224AE7C007DF0
:10218D000C1207BFE47B0AFAF9F81205EE9062CC47
:0E219D001206FD7F03122537906301E07034B7
:1021AB007FEA7E0BFDFC9062CC1206E1C312068E19
:1021BB0050089062CBE004F08005E49062CBF09085
:1021CB0062CBE0C3940AE44007F090630104F02271
:0421DB00906301F01C
:0121DF0022DD
:1025C400906301E07008300516C20502080A9063A2
:1025D40001E0B4010A9063137408F0A37434F02288
:10223F007F041224DCEF60127F041224AE9062D070
:10224F00EEF0A3EFF07F04122537906304E07020C7
:10225F00D39062D1E094209062D0E0940E5004D2DB
:10226F00078002C2079063187417F0A37471F022ED
:10227F00C39062D1E094C89062D0E0940E4002C245
:0B228F00079063187405F0A374DCF0E6
:01229A002221
:0300420002147134
:10147100C0E0C0F0C083C082C0D075D000C000C041
:1014810001C002C003C004C005C006C007786BE2FA
:0614910020E10302158AB0
:10149700AF93EF75F010A4FFE594C4540FFDEF4D23
:1014A700FF90632CE5F0F0A3EFF0E24402F29063C3
:0914B70002E06402600302155F0B
:1014C0001224A6505EE004F0E0C39402404A906209
:1014D000D7E0FEA3D3122499400CE0FFA3E0906272
:1014E000D7CFF0A3EFF09062D9E0FEA3C312249906
:1014F000500CE0FFA3E09062D9CFF0A3EFF0906230
:10150000D31206E190632CE0FEA3E0FFE4FCFD12A1
:1015100005569062D31206FD1224A650067869E2A1
:101520004401F21224A64062A31206C578041206F2
:101530009FAD07AC067F011222E49063027403F0B2
:101540009062D2E4F09062D7F0A3F09062D974FF79
:0D155000F0A3F09062D31207090000000024
:10155D00802B906302E0B405071224907F02801A5D
:10156D00906302E0B407071224907F03800C906310
:0D157D0002E0B409081224907F041222E459
:10158A00D007D006D005D004D003D002D001D000B5
:0B159A00D0D0D082D083D0F0D0E0325F
:10104D0041634700C10842633D000042633F000019
:0C105D00426341000044634300000000B7
:07272D00E475F00102054014
:1026420043A820D2AF75D10178957401F21874763F
:0B265200F2789174A0F21874FDF222DF
:03001E000216CEF9
:1016CE00C0E0C0F0C083C082C0D075D000C000C0E2
:1016DE0001C002C003C004C005C006C0077891E275
:1016EE0020E7030217D4E24480F2906347E004F04F
:1016FE00E0C3940D4004E4F0D208906286E0C394F7
:06170E00FF5003E004F0AF
:1017140030022590626CE0601F90633D12272DC358
:1017240090633EE0946090633DE094EA4011E4F0FD
:0F173400A3F090626CF0800790633DE4F0A3F0A7
:1017430030072790634112272D90633FE4F0A3F005
:10175300C3906342E09432906341E09400402FE4ED
:10176300F0A3F090630404F0802490633F12272DCC
:10177300906341E4F0A3F0C3906340E0944090632E
:0E1783003FE0941F4008E4F0A3F0906304F0F0
:10179100906317E0703D9063431206C5EF2401FF8B
:1017A100E43EFEE43DFDE43CFC9063431206FD7F14
:1017B100407E777D1B7C009063431206E1C31206D5
:1017C1008E401090634312070900000000906317D8
:0317D1007401F0B0
:1017D400D007D006D005D004D003D002D001D00069
:0B17E400D0D0D082D083D0F0D0E03213
:071069004463500000000089
:08272500789CE2541FF2E2224D
:10237000E5B154CF42B1789CE254E3F2E24414F266
:10238000E254FCF2E24401F208E24480F2E244202A
:10239000F278A1743BF2187460F2789EE4F208F2CD
:0C23A00012272544A0F253A8BFD2AF22A0
:0C26FC0012272544C0F243A840D2AF22B0
:1026AC0012272544A0F2789EE4F208F253A8BF2228
:0300210002265D57
:10265D00C0E0C0D075D000C000789DE230E704E244
:0A266D004480F2D000D0D0D0E0325B
:09107000C100C10142633B000014
:1021E00090632F1206C5EF4401FFEC90632F0206A7
:1021F000FD90632EE4F09063332290631AE0FEA317
:10220000E0FF2290631CE0FEA3E0FF22E475F001F2
:102210000205409063347401F0906333E4F022903F
:102220006310E09F90630FE09E22906312E09F9006
:0F2230006311E09E2290632EE004F0E064182218
:1025E40043A901D2AF75D104907105E4F090710450
:1025F4007424F090710174A0F090710074FDF022C5
:03002400020D6565
:100D6500C0E0C0F0C083C082C0D075D000C000C054
:100D750001C002C003C004C005C006C007907101D0
:100D8500E020E703020F95E04480F09063371222DC
:100D95000C90633912220C90633B12220CC39063B2
:100DA5003AE0940D906339E094004006E4F0A3F036
:100DB500D201C3906338E0940D906337E09400400E
:070DC50006E4F0A3F0D200E8
:100DCC0020833D906335E004F0E0C3941E50030291
:100DDC000ED490632EE064176003020ED490633639
:100DEC00E09406400AE0941450051221E0800B9028
:100DFC006336E0C394014002E0FF122213020ED4CA
:100E0C00906335E0D394005003020EBAE0D39432D1
:100E1C00401290632F120709000000001221F10408
:100E2C00F0020EA7906333E06024906335E0C39426
:100E3C0002401BE094075016A3E0C39406400FE059
:100E4C009414500A1221E0122235604F80319063C5
:100E5C0033E06039906335E0C394074030E094147C
:100E6C00502BA3E0C394014024E09406501F9063E0
:100E7C002F1206C5EF54FE1221E9122235601CA375
:100E8C001206C578011206B21221EB800E90632F68
:100E9C00120709000000001221F1F0906335E4F014
:100EAC00A3F090632EE0B4181912221380149063EF
:100EBC0033E0700E90632F1207090000000012211E
:100ECC00F1F0906336E004F0906334E0601B9063C3
:100EDC002EE4F0906334F0A3F0A3F090632F12068D
:090EEC00C59062C01206FDD2039C
:100EF500C390633CE0941490633BE094005003027C
:100F05000F95E4F0A3F0300603020F951221FAD3F2
:100F150012221F400990631AE475F0018010122116
:100F2500FAC312221F500A90631A74FFF5F01205D6
:100F350040122203D312222A400990631CE475F063
:100F4500018010122203C312222A500A90631C74D6
:100F5500FFF5F01205401221FA122713122203128F
:100F6500271CD390631BE0940090631AE094005013
:100F75000512000F80031226CAD390631DE094006A
:100F850090631CE0940050051226BC80031226D7FE
:100F9500D007D006D005D004D003D002D001D000B0
:0B0FA500D0D0D082D083D0F0D0E0325A
:0C1079004263561771C109426354100015
:10260400E0FEA3E0FF1207BF7B0AE4FAF9F8120523
:10261400EEE422906355E094DD906354E094042248
:1017EF007F021224DCEF60127F021224AE9063544A
:1017FF00EEF0A3EFF07F021225373009030218FB3A
:10180F00D3906355E094EA906354E09401500AE456
:10181F00906356F0A3F00218EED31226175029E06A
:10182F00FEA3E0FFEF2416FFEE34FEFEE434FFFDCF
:10183F00E434FFFCE47BE27A2EF9F81205631226FA
:10184F000C7BDD7A040218D5D3906355E094EE90AB
:10185F006354E09408500E7C5D7DC41226047BEE29
:10186F007A080218D5D3906355E09412906354E030
:10187F00940B5017E0FEA3E0FF7C177D711207BF9A
:10188F007B0212260E7B127A0B803BD3906355E0BE
:10189F0094BC906354E0940C500D7C8C7DA6122662
:1018AF00047BBC7A0C801FD3906355E094919063B6
:1018BF0054E0940F501FE0FEA3E0FF7CBB7D881225
:1018CF0026097B917A0FF9F81205EE906356EEF028
:1018DF00A3EFF0800A9063567417F0A37471F09021
:1018EF006356E07002A3E0700BD20922C3122617D1
:0418FF004002C209D8
:0119030022C1
:1010850041626C00446281FFFFFFFF4662C40000BD
:1010950000000000C102C1034462C000000000540A
:1010A500626D0821222324042526272802292A2BBC
:1010B5002C012D2E2F30602862981401020304188C
:1010C5000506070810090A0B0C150D0E0F10051162
:1010D500121314081516171806191A1B1C091D1EBC
:1010E5001F205362853200000000000F120000002F
:0C10F500040001FF1E25FF0041626B009B
:101B1500740175F02C90630B120540D390630CE0B3
:101B2500947190630BE0941722740175F02C906307
:101B35000D120540D390630EE0947190630DE0940F
:101B4500172274FE75F0D4120540C390630CE0941F
:101B55002C90630BE094012274FF75F06A12054026
:101B6500C390630CE0949690630BE094002274FE9E
:101B750075F0D4120540C390630EE0942C90630D6C
:101B8500E094012274FF75F06A120540C390630E5C
:101B9500E0949690630DE094002212069F9062C433
:101BA5001206E1C302068E9062C00206C57417F0E4
:101BB500A37471F0229062C9E064C522EE75F00548
:101BC500A4246DF582E4346222EE75F005A4249810
:101BD500F582E43462227B017A6279C47406F0E40A
:101BE500FF2212069F9062810206FD9062C41206D2
:051BF500C59062812291
:101E2500200303021EBDC203121BACEC4D4E4F70C6
:041E350003021EBACC
:101E3900121BACEF90631EF090626CE0602B906314
:101E49001EE0540FFBBB010F121BAC7804121BE7F9
:101E590090631EEBF0804A90631EE0641470421296
:101E69001BAC7808121BE78038121BBA702D9062E0
:101E7900C8E0B40113121BAC7804121B9F700990BF
:101E8900631EE0540FF080199062C8E0B4020A1290
:101E99001BAC7808121B9F6008800090631E74FFBA
:101EA900F09062C01207090000000090631EE0FF75
:011EB9002206
:061EBA007FFF227FFF22E2
:02232B00A90700
:10232D00E4FFFEEB64017014121BC1F583E0B501EF
:10233D0005121BC180180EEEB404ED22EB64027081
:10234D0021FE121BCEF583E0B50112121BCEF583D3
:10235D00E5822DF582E43583F583E0FF220EEEB4A0
:02236D0008E086
:01236F00224B
:081FE60090631FEFF0A3EDF082
:101FEE00E4A3F0A3F090626CE06035121BF0121BBC
:101FFE00A57018121BBA70139062C8E0B40102806B
:10200E00339062C8E064027050803C90631FE0FF22
:10201E00B41402803790631FE0FF6401703B801997
:10202E00121BF0121BA57031121BBA702C9062C8D5
:10203E00E0B4010C90631FE0FFA3E0FD7B01801173
:10204E009062C8E0B4021290631FE0FFA3E0FD7B34
:0E205E000212232B906321EFF0906321E0FF2C
:01206C002251
:100AEF00E490631EF0906296E0F47003020D64E0F0
:100AFF00FFA3E0FD121FE690631EEFF09062967465
:050B0F00FFF0E4A3F07B
:100B140090626CE06401705A90631EE0FF90626B17
:100B2400E06F7044EF64036005EF642F705E9062C1
:100B3400C974C5F09062811206C59062C41206FDA4
:100B440090631EE09062C8B403057402F0800374DD
:100B540001F0E4FF12269B906323121BDB1223ACEB
:100B640090626C7402F0802490631EE090626BF0DB
:100B7400801A90626CE0B4021390631EE0FF640478
:0C0B84006004EFB43006E490626CF022D4
:100B9000121BBA6003020D6490626CE0600F9062F9
:100BA000811206C5121BA2700490626CF090631E45
:100BB000E01207930C00010C00040C0F050C0F0849
:100BC0000C12090C1D0B0C2C0D0C370F0C46110CC4
:100BD00046140C4C150C4C180C52190C611B0C775C
:100BE0001D0C8F1F0CA7210CBA230CDB250CDB2856
:100BF0000CF0290D172B0D3E2D0D3E3000000D641D
:100C00001226E4EF70061226F0EF6003020D4A028E
:100C10000D58121B155003020D64020D61E475F0AE
:100C200096121B1A5003020D64020D61121B2E5006
:100C300003020D64020D61E475F096121B3350033C
:100C4000020D64020D6190630B020CE890630D02CB
:100C50000CE8121B4F4019121B474003020D648021
:100C600023121B65400A121B5D4003020D648014B1
:100C7000E490630B020D54121B7B400C121B73405B
:100C800003020D64E4020D54E490630D020D54124E
:100C90001B91400C121B894003020D64E4020D54A9
:100CA000E490630D020D54121B154003121BB21287
:100CB0001B2E5003020D64020D6190630BE475F06E
:100CC00096121B1D4003121BB290630DE475F09643
:100CD000121B365003020D64020D6190630B740BFE
:100CE000F0A374B8F090630D740BF0A374B8F02205
:100CF000121B4F4008121B47500AE48004E4906323
:100D00000BF0A3F0121B7B4008121B735056E480BB
:100D100043E490630D803D121B654008121B5D503B
:100D20000AE48004E490630BF0A3F0121B914008E6
:100D3000121B89502FE4801CE490630D801612264C
:100D4000E4EF70061226F0EF600EE490630BF0A360
:100D5000F090630DF0A3F02290630B121BB290632E
:040D60000D121BB2A3
:010D6400226C
:1023E30078C0E24408F278C2E2543FF278D0E24483
:1023F30002F278D2E254F3F2209104D2028002C2B4
:102403000230020F906322121BDB12241790626CBE
:042413007401F0223E
:0411010041635B00EB
:1025820090631EF090635802073A9000061204AC62
:10259200FE9000080204AC90000912051E90000C87
:0125A2002216
:10117800E490631EF07FFFA374FFF090635812079A
:101188005A9000011204ACFE120493FDEEC39D5068
:101198000302130A122586900001E412051E90002E
:1011A8000E1207631207B9EFF4600890635B7423AB
:1011B800F0800990635BE06003E014F012258690EC
:1011C80000031204AC6F60159000051204AC600DAA
:1011D800900004E412051E90000302130690000517
:1011E8001204ACFE9000041204ACC39E500B1225EE
:1011F8008690000474010204D91225869000021218
:1012080004AC6F6048EFF4701C12258CC39E400A32
:101218007404122582900002806112258690000ACB
:1012280074010212FD122586900008740112259C93
:101238001204AC6F906358600C12073A74011225BF
:1012480099EF0212FD12073A900009803DEFF47001
:10125800411225869000091204ACD3940050030271
:10126800130090000B1204ACFE90000A1204ACD3D9
:101278009E4011740112258290000C1204AC9063F8
:101288001FF0805412258690000A74011204D902B6
:101298001300122586122593C394FF500890000866
:1012A80074011204D912258CB5060890631E7402C5
:1012B800F0802012258690000712258F6E703990D5
:1012C800631E74031225859000061204AC90000872
:1012D80012051E90631FEFF0122586E412259974FB
:1012E800FF12051E90631FE090001112051E906307
:1012F8001EE090001212051E122586900002EF12C1
:02130800051EC0
:01130A0022C0
:10269B0075AF3F8FAF75AEB975A402E5A530E1FB01
:0126AB00220C
:1023AC0090632012075A75AF3F8FAF906323E0C341
:1023BC0094014022E5A530E0FB906320E475F00128
:1023CC00120743120493F5A675AEB975A401906378
:0723DC0023E014F080D5227C
:1024170090631F12075A906322E06027AE070FEE02
:102427002400FDE4343F8D82F583E493FE90631F1F
:10243700E475F001120743EE12050C906322E014D5
:04244700F080D3222C
:1026890078D2E254CFF2E24410F2907188E4F0C2B9
:0226990092228B
:10255E00C390631BE0945890631AE094025012C328
:10256E0090631DE0945890631CE094025003D29245
:04257E0022C29222C1
:0411050041635D01E4
:072734007869E24401F22282
:1025A30043A902D2AF75D10890710D7401F09071F7
:1025B3000C745DF090710974A0F090710874FDF0D3
:0125C30022F5
:03002700021A18A2
:101A1800C0E0C0F0C083C082C0D075D000C000C094
:101A280001C002C003C004C005C006C00790710908
:0E1A3800E020E703021AFA907109E04480F002
:101A460090635CE004F0E0C39408400AA3E06006FB
:101A5600E4F0906302F090635CE0C3940A4007E40C
:061A6600F0D205A304F01C
:101A6C00906302E06004E0B4090E7F0112229B90A7
:101A7C0063027401F0021AFA906302E0B4010812D6
:101A8C0027347402F08067906302E0B4030D7F0288
:101A9C0012229B9063027404F08053906302E0B4B2
:101AAC0004081227347405F08044906302E0B405F6
:101ABC000D7F0312229B9063027406F080309063BA
:101ACC0002E0B406081227347407F08021906302F8
:101ADC00E0B4070D7F0412229B9063027408F0801F
:101AEC000D906302E0B408061227347409F0D00795
:101AFC00D006D005D004D003D002D001D000D0D075
:091B0C00D082D083D0F0D0E03289
:1011090042600600004262680000426266100041C7
:10111900626A0060406008FFFF00000000000000F4
:1011290000000000000000000000000000000000B6
:1011390000000000000000000000000000000000A6
:101149000000000000000000000000000000000096
:101159000000000000000041600000416001004102
:0E116900600200C10442600300004160050006
:1020EC00EF25E0FFEE33FE744A2FF58274603EF567
:1020FC0083227FC37E05E4FDFC90631E1206E1D3B0
:10210C0002068EECF0A3EDF0906322E475F0010270
:10211C000540D3906316E094B8906315E0940B22BD
:10212C00906322E0FEA3E0FFC322906000E025E074
:10213C002408F582E43460F58322E4906322F0A352
:10214C00F02233FE74082FF58274603EF5832290E2
:0B215C006323E025E0FF906322E022F7
:10080A0090631E120709000000007F011224DCEF2A
:10081A00601A7F011224AE906003EEF0A3EFF07F1E
:10082A0001122537906005E0700204F0906005E03F
:10083A007003020AEE906008E0F47003A3E0F4701B
:01084A003F6E
:10084B0012214712212C9420EE9400501590600336
:10085B00E0FCA3E0FDEF25E0FFEE12214E12210F8D
:10086B0080E112214612212C940EEE9401505990E6
:0F087B006003E0FCA3E0FD1220EC12210F80E6E9
:10088A00122136E0FFA3E0906322CFF0A3EFF090AD
:10089A006003E0FEA3E0FF906322EE8FF0120540B2
:1008AA00906322E0C313FEA3E013FF906322EEF0ED
:1008BA00A3EFF0122136EEF0A3EFF0906000E0040F
:0908CA00F0E0C394204002E4F0C8
:1008D30012214690631E1206E112215B12214EE0A3
:1008E300FEA3E0FFE4FCFD12055690631E1206FD15
:1008F300122114906322E07004A3E0642070D4906A
:10090300631E1206C5780512069F90631E1206FD2C
:1009130090631E1206C5AD07AC06906049E025E062
:10092300FF906048E033FE744A2FF58274603EF511
:1009330083ECF0A3EDF0906048122117C390604957
:0F094300E0940E906048E094014004E4F0A3F0CB
:10095200122146906268F0A3F09062667410F0A3D0
:10096200E4F012212C940EEE940140030209F512D8
:1009720020ECE0FCA3E0FD906268E0FAA3E0FBD388
:10098200ED9BEC9A400F1220F3E0FFA3E090626827
:10099200CFF0A3EFF012215B1220F1E0FCA3E0FD07
:1009A200906266E0FAA3E0FBC3ED9BEC9A500F1253
:1009B20020F3E0FFA3E0906266CFF0A3EFF0906235
:1009C20066E0FEA3E0FFC3906269E09FFF90626869
:1009D200E09EFED3EF9450EE9400400890626A7459
:1009E2001EF0800990626AE06003E014F0122114A4
:0309F20002096493
:1009F500E47F8B7E06FDFC90631E1206E1C31206A2
:100A05008E500C3004597F8B7E061221024050E433
:100A1500906001F0A3F0D20490626AE0B41E1BE07E
:100A250014F012211E400774FFF5F0120540C312A1
:100A3500211F4003020AEE020AA990626AE06003E0
:100A4500020AEE200003020AEEC200C3906316E01C
:100A55009471906315E094174003020AEE803C12EE
:100A650020FE4048E47F6D7E061221034008906019
:100A750001E064047036300170C201906001E0C38A
:100A850094045003E004F0E4906002F0C2041221E3
:100A95001E40028043C312211F5006E475F00180F9
:100AA5003C906315740BF0A374B8F0221220FE403D
:100AB50006906002E0603230012FC201906002743E
:100AC50001F0E4906001F0C204D3906316E094084D
:100AD500906315E09407400874FF75F0FE02054029
:090AE5009063157407F0A304F0FE
:010AEE0022E5
:1000450002034FE86480F8E933E83360110460F097
:10005500ED33EC337009E8FCE9FDEAFEEBFF220421
:1000650060DED3EB9FEA9EE99DE8C2E78CF0C2F71C
:1000750095F0400CE8CCF8E9CDF9EACEFAEBCFFBE8
:1000850012031A85D0F05804700320D5B3E8047024
:10009500075002B2D502035992D5EC0460F7E4CCBF
:1000A500C0E0C398F8603B94186008400DD0E0FBB1
:1000B500020331E4FBFAC9FC8028E830E406E4C910
:1000C500FBE4CAFCE830E305E4C9CACBFCE8540705
:1000D5006010F8C3E913F9EA13FAEB13FBEC13FC10
:1000E500D8F130F52FC3E49CFCEF9BFFEE9AFEEDB3
:1000F50099FDD0E0FBEF4E4D4C701222DB0302035D
:1001050056EC2CFCEF33FFEE33FEED33FDED30E71F
:10011500EB020331EF2BFFEE3AFEED39FDD0E0FBAC
:1001250050130BBB0003020359ED13FDEE13FEEF55
:0801350013FFEC13FC0203317F
:10013D00EC4D6011E8497017ED33EC3304600DE4BC
:10014D00FCFFFEFD22E933E8330470F802034F1281
:10015D00031A58046009E4CC248150062850090282
:10016D000359284003020356C0E0EB4A7044B9809E
:10017D0006D0E0FB020345EF4E701CBD8008EBFF7F
:10018D00EAFEE9FD80EBE98DF0A4FEE5F002022622
:10019D00E9CDF9EAFEEBFFEF89F0A4FCE5F0CE899D
:1001AD00F0A42EFFE435F0CD89F0A42DFEE435F05A
:1001BD008067EF4E7005BD80D780C3EF8BF0A4AC88
:1001CD00F0EE8BF0A42CFCE435F0F8EF8AF0A42CC3
:1001DD00E5F038FCE433CB8DF0A42CFCE5F03BF8D6
:1001ED00EE8AF0A42CFCE5F038F8E433CF89F0A4C6
:1001FD002CFCE5F038CF3400CE89F0A42FFFE5F0CC
:10020D003EFEE433C98DF0A42EFEE5F039CD8AF023
:10021D00A42FFFE5F03EFEE43DFD33D0E0FB50079B
:10022D000BBB000F020359EC2CFCEF33FFEE33FE3A
:06023D00ED33FD02033168
:10024300020359EC5D046005E85904700302034F8F
:1002530012031A580460F6EC4860F2EC7004FDFED9
:10026300FF22C860DB2481C85009C398600250068E
:100273000203569850CAF582E9294B4A7005AB82AE
:1002830002034575F0007C1A7880C3EF9BEE9AED6C
:1002930099400DC3EF9BFFEE9AFEED99FDE842F006
:1002A300DC23ACF0D0E0FFD0E0FED0E0FDAB822059
:1002B300E7101BEB60BAEC2CFCEF33FFEE33FEEDE3
:1002C30033FD020331E803F830E705C0F075F000B1
:1002D300EF2FFFEE33FEED33FD40B830E7C280AAC7
:1002E300EDD2E7CD33EC3392D524814006E4FFFE13
:1002F300FDFC22FCE4CFCECDCC24E0501174FF8072
:10030300EDC3CC13CCCD13CDCE13CECF13CF04700E
:07031300F030D5DE02068088
:10130B0090631E1206FDE4FFFE7D807C3F90631E02
:10131B00E0F8A3E0F9A3E0FAA3E0FB12037E70066A
:10132B0090631E02146590631EE0FCA3E0FDA3E036
:10133B00FEA3E0FF120364FBA3E0FCA3E0FDA3E02C
:10134B00FEA3E0FF120364FFB40108E4FFFE7D80FF
:10135B007C3F22EF64046029EB64046024EBB4014E
:10136B0030E4FFFEFDFC906322E0F8A3E0F9A3E07C
:10137B00FAA3E0FB12037E60084006E4FFFEFDFCCF
:10138B0022906322120709FFFFFFFF9063220214D2
:10139B0065E4906326F0A3F0FFFEFDFC90631EE076
:1013AB00F8A3E0F9A3E0FAA3E0FB12037E505F90F1
:1013BB006322E0FCA3E0FDA3E0FEA3E0FF1202E347
:1013CB00906326EEF0A3EFF0FDCCEECCEC12040D07
:1013DB00C8ECC8C9EDC9CAEECACBEFCB906322E00B
:1013EB00FCA3E0FDA3E0FEA3E0FF120048E4FBFA40
:1013FB00F9F812037E708A90631EE0FCA3E0FDA354
:10140B00E0FEA3E0FF1203F790631E1206FD90634C
:10141B001EE0FCA3E0FDA3E0FEA3E0FF1215D990B4
:10142B006322E0F8A3E0F9A3E0FAA3E0FB12013D8D
:10143B00121EF89063221206FD906327E030E0172E
:10144B00906322E0FCA3E0FDA3E0FEA3E0FF120308
:10145B00F79063221206FD906322E0FCA3E0FDA34C
:06146B00E0FEA3E0FF22F9
:10031A00E9D2E7C933E833F892D5EDD2E7CD33EC29
:07032A0033FC5002B2D522A2
:10033100EC30E7100FBF000C0EBE00080DBD00042D
:100341000BEB6014A2D5EB13FCED92E7FD2274FFD9
:10035100FCFDFEFF22E480F8A2D574FF13FC7D8032
:03036100E480EF46
:10036400ED33EC33601004700FED547F70057402AC
:0A03740092E0227404220422E42225
:10037E0074F8CC6480CCC86480C8F58204604FC326
:10038E00EB9FF5F0EA9E42F0E99D42F0E89C45F0C5
:10039E00603C501DE5825FFFE582D313CB5BCBF44F
:1003AE002B5582FB50280ABA002409B90020088078
:1003BE001DE5825BFBE582D313CF5FCFF4C3132F12
:1003CE005582FF50090EBE00050DBD00010CC3EB9A
:1003DE009FF5F0EA9E42F0E99D42F0E89C45F06000
:0903EE0007CC4820E701B3EC2222
:1003F700ED33EC33600A047003BD8004ECB2E7FC14
:0104070022D2
:1004080075F020800E75F010800575F0087D007E6F
:10041800007F003392D530D503120680EC334010AC
:10042800EF33FFEE33FEED33FDEC33FCD5F0ED2278
:0E043800E5F0247EA2D513CC92E7CDCEFF22B4
:101EC00033DA929E35B16011377FE5FE392184897E
:101ED0003AAEC3FF3C1D955B3D6358473E75FDF030
:101EE0003F3172183F800000C2D502035902034FF0
:101EF000BD80FA50F3020356ED33EC330460F17BFE
:101F00003B7AAA79B8783F12013DED33EC3392D594
:101F1000247B5011A2D570DB500BED44802404507B
:101F200004A2D580CEEFFBEEFAEDF9ECF81202E355
:101F3000EFF582F404FC12041212004CC082901ED1
:101F4000C07409120455ED33CC33D0F092D525F08E
:0A1F5000A2D57001C313CC13FD22CB
:1015A5003E9248DA3ECCCCCD3F2AAAAB40000000A3
:1015B5003F8000003F9837F03FB504F33FD744FC28
:1015C5003E3172173EB172173F0515913EDE5BD96C
:1015D500D20A8002C20AEDD2E7F8CD33EC330470AB
:1015E5000BBD800592D502035902034F40FBD3146E
:1015F50060F2F5F07C3FEE7A00C39496C8948B4078
:10160500230AC89469C8941A401A0AC89468C894E9
:101615001F40110AC8945AC89425400805F07A005D
:10162500CDC2E7CDC0F09063281206FDEA2323C0A2
:10163500E024B5F582E43415F5831206ED12004C6D
:10164500ECC0E0EDC0E0EEC0E0EFC0E01206D190E6
:1016550063281206E1120048D0E0FBD0E0FAD0E0A2
:10166500F9D0E0B2E7F81202469063281206FD9021
:1016750015A574031204469063281206E112013D74
:10168500D0E0600F24C1F582E43415F5831206ED30
:1016950012004C9063281206FDD0E0C3947FFDE450
:1016A5009400FC12040D7B187A727931783F12018F
:1016B5003D9063281206E112004C300A0B7BD97A63
:0916C5005B79DE783E12013D2242
:10044600C0E0EFFBEEFAEDF9ECF812013DD0E0F575
:10045600F0EFFBEEFAEDF9ECF81206D1A3A3A3A395
:10046600E8C0E0E9C0E0EAC0E0EBC0E0C0F012019D
:100476003D1206EDA3A3A3A312004CD0F0D0E0FBDF
:0D048600D0E0FAD0E0F9D0E0F8D5F0D422B3
:101F6600021904E493A3F8E493A34003F68001F274
:101F760008DFF48029E493A3F85407240CC8C3337C
:101F8600C4540F4420C8834004F456800146F6DF4B
:101F9600E4800B0102040810204080900FB0E47E1C
:101FA600019360BCA3FF543F30E509541FFEE49340
:101FB600A360010ECF54C025E060A840B8E493A307
:101FC600FAE493A3F8E493A3C8C582C8CAC583CA32
:101FD600F0A3C8C582C8CAC583CADFE9DEE780BEEA
:011177000077
:10049300BB010689828A83E0225002E722BBFE0267
:0904A300E32289828A83E493229A
:1004AC00BB010CE58229F582E5833AF583E0225005
:1004BC0006E92582F8E622BBFE06E92582F8E2224F
:0D04CC00E58229F582E5833AF583E4932269
:1004D900BB010FF8E58229F582E5833AF583E02827
:1004E900F0225009C58229F8E58226F622BBFE09C9
:1004F900C58229F8E22582F222F8EA2583F583E903
:0305090093282212
:10050C00BB010689828A83F0225002F722BBFE01CE
:02051C00F322C8
:10051E00F8BB010DE58229F582E5833AF583E8F013
:10052E00225006E92582C8F622BBFE05E92582C8BF
:02053E00F222A7
:10054000C5F0F8A3E028F0C5F0F8E5821582700246
:060550001583E038F022E3
:0D055600EF2BFFEE3AFEED39FDEC38FC22F4
:10056300E88FF0A4CC8BF0A42CFCE98EF0A42CFC37
:100573008AF0EDA42CFCEA8EF0A4CDA8F08BF0A4B5
:100583002DCC3825F0FDE98FF0A42CCD35F0FCEB14
:100593008EF0A4FEA9F0EB8FF0A4CFC5F02ECD39D9
:0F05A300FEE43CFCEAA42DCE35F0FDE43CFC2246
:1005B20075F008758200EF2FFFEE33FECD33CDCC00
:1005C20033CCC58233C5829BED9AEC99E582984083
:1005D2000CF582EE9BFEED9AFDEC99FC0FD5F0D660
:1005E200E4CEFBE4CDFAE4CCF9A88222B800C1B98A
:1005F2000059BA002DEC8BF084CFCECDFCE5F0CBC8
:10060200F97818EF2FFFEE33FEED33FDEC33FCEB00
:1006120033FB10D703994004EB99FB0FD8E5E4F9BB
:10062200FA227818EF2FFFEE33FEED33FDEC33FCA8
:10063200C933C910D7059BE99A4007EC9BFCE99A9C
:10064200F90FD8E0E4C9FAE4CCFB2275F010EF2FE1
:10065200FFEE33FEED33FDCC33CCC833C810D707E1
:100662009BEC9AE899400AED9BFDEC9AFCE899F81C
:0E0672000FD5F0DAE4CDFBE4CCFAE4C8F922AF
:0E068000C3E49FFFE49EFEE49DFDE49CFC228B
:10068E00EB9FF5F0EA9E42F0E99D42F0E89C45F0C2
:01069E002239
:10069F00E8600FECC313FCED13FDEE13FEEF13FF39
:0306AF00D8F1225D
:1006B200E8600FEFC333FFEE33FEED33FDEC33FCA6
:0306C200D8F1224A
:0C06C500E0FCA3E0FDA3E0FEA3E0FF22A8
:1006D100E493FC740193FD740293FE740393FF226F
:0C06E100E0F8A3E0F9A3E0FAA3E0FB229C
:1006ED00E493F8740193F9740293FA740393FB2263
:0C06FD00ECF0A3EDF0A3EEF0A3EFF02270
:10070900A8828583F0D083D0821207201207201295
:100719000720120720E473E493A3C583C5F0C583BA
:10072900C8C582C8F0A3C583C5F0C583C8C582C83A
:01073900229D
:09073A00E0FBA3E0FAA3E0F922C0
:10074300F8E0FBA3A3E0F925F0F0E582158270023F
:070753001583E0FA38F022E3
:09075A00EBF0A3EAF0A3E9F022A0
:10076300BB010DE58229F582E5833AF58302073A59
:100773005007E92582F80207ECBBFE07E92582F85A
:100783000207F5E58229F582E5833AF5830207FE40
:10079300D083D082F8E4937012740193700DA3A3F5
:1007A30093F8740193F5828883E473740293686009
:0607B300EFA3A3A380DF09
:0607B9008A838982E473CB
:1007BF00EC8EF0A4CCC5F0CCCDF8EFA4CEC5F02DC7
:1007CF00FDE43CFCE8A42EC8C5F03DFDE43CFCEF85
:0D07DF00A4FFE5F028FEE43DFDE43CFC2213
:0907EC00E6FB08E6FA08E6F92232
:0907F500E2FB08E2FA08E2F92235
:0C07FE00E493FB740193FA740293F92257
:00000001FF
